:020000040200F8
:10000000C0A50022F90F000265060002DD0500020E
:10001000DD050002DD050002DD050002DD05000250
:10002000000000000000000000000000DD050002EC
:10003000DD05000200000000DD0500024B27000284
:100040009B47000273480002234800021547000244
:1000500051400002893E00028D3F000251400002E3
:100060009941000251400002893E00028D3F00028A
:100070000000000000000000000000000000000080
:100080000000000000000000000000000000000070
:100090000000000000000000000000000000000060
:1000A0000000000000000000000000000000000050
:1000B0000000000000000000000000000000000040
:1000C0000000000000000000000000000000000030
:1000D0000000000000000000000000000000000020
:1000E0000000000000000000000000000000000010
:1000F0000000000000000000000000000000000000
:1001000000000000000000000000000000000000EF
:1001100000000000000000000000000000000000DF
:1001200000000000000000000000000000000000CF
:1001300000000000000000000000000000000000BF
:1001400000000000000000000000000000000000AF
:10015000000000000000000000000000000000009F
:10016000000000000000000000000000000000008F
:10017000000000000000000000000000000000007F
:10018000000000000000000000000000000000006F
:10019000000000000000000000000000000000005F
:1001A000000000000000000000000000000000004F
:1001B000000000000000000000000000000000003F
:1001C00040EA01039B0703D009E008C9121F08C0D9
:1001D000042AFAD203E011F8013B00F8013B521E59
:1001E000F9D27047D2B201E000F8012B491EFBD2D0
:1001F00070470022F6E710B513460A460446194632
:10020000FFF7F0FF204610BD2DE9F05F0546002006
:1002100092469B4688460646814640241BE0284677
:1002200041464746224600F02FF853465A46C01A28
:10023000914110D311461846224600F016F82D1AA7
:1002400067EB01084F4622460120002100F00DF81F
:1002500017EB00094E41201EA4F10104DFDC4846E3
:1002600031462A464346BDE8F09F202A04DB203A67
:1002700000FA02F1002070479140C2F1200320FAF9
:1002800003F3194390407047202A04DB203A21FAF7
:1002900002F00021704721FA02F3D040C2F120029F
:1002A00091400843194670470FF20C0C13460A465A
:1002B0000146604600F024B83D2E6DE2A12517BA34
:1002C000C5B31BBD0E7E3B5470B180B500230FF249
:1002D0001C0C00221CF803E0013201F803E0D3B249
:1002E0008342F7D3BDE88040704700BF66B0CF318E
:1002F000F56AC16ABF4610DF87A1AE20000000008A
:100300002DE9F04F81B02DED048B94B082460DF1B4
:10031000400914460F460020CDE90C00102251463A
:10032000CDE90E00484698461025FFF749FF0CAE70
:1003300000223046494603F0D1F99DF93000B0F172
:10034000FF3F11DD04A845F001E00F3006F10F0179
:10035000002200BF11F8013942EA430200F80129E6
:10036000DA090FF009C81AE045F001E009F10F00C1
:1003700006F10F01002200BF11F8013942EA4302E1
:1003800000F80129DA090FF009C85DA099ED001EF7
:1003900090ED003F04A800FF520180ED001E9DF982
:1003A0001000B0F1FF3F11DD4FF0100E684604A9B8
:1003B0000F300F31002200BF11F8013942EA430229
:1003C00000F80129DA090FF009C81AE04FF0100E01
:1003D00004A909F10F000F31002200BF11F8013903
:1003E00042EA430200F80129DA090FF009C844A0E3
:1003F00099ED001E90ED003F684600FF520180ED30
:10040000001E04F10F0004F11E02C1171F2A00EBA9
:1004100011704FEA2011084638BF012008D314F0AC
:100420000F0205D107EB011111ED101E04A929E0FF
:10043000E2174FF0100E07EB001104EB12720DF1F2
:10044000200B22F00F021039A21A4FF0000C4FF0CF
:1004500080095C46002500BF954203DA0B782370C3
:1004600008E000BFAA4203D10BF8029002E000BFEF
:1004700084F800C00135013401310FF013C89BED41
:10048000001E694691ED003E02284FF0000102FF78
:100490005081CDE90E11CDE90C1115DB451E10ACD4
:1004A00096ED001F102220465146B7EC103E02FF89
:1004B000500186ED001FFFF783FE002230462146E3
:1004C00003F00CF9013DEBD110AC96ED001F1022AA
:1004D0002046514608FF500186ED001FFFF770FED1
:1004E00000223046214603F0F9F8102240463146FA
:1004F000FFF766FE14B0BDEC048B01B0BDE8F08FD1
:100500000000000000000000000000000000008764
:1005100080B542F2883045F26821C2F20020C0F274
:10052000002100F085F900B980BD45F2BB7045F2AD
:10053000A871C0F20020C0F20021092203F0CAF81D
:1005400080B589080BD04FF0000C21F001E000BF0E
:10055000B0EC041FF9FE20CF1FF007C001E04FF000
:10056000000C94455FEA0F9080BD42F25E200021AE
:10057000C2F20020017042F26C20C2F20020012180
:10058000018070470120704780B542F2C03045F2CB
:100590000C41C2F20020C0F2002100F053FB00B970
:1005A00080BD02A006A10A2203F094F84653505FD2
:1005B00053554343455353203D3D2065727200001F
:1005C00064656275675F756172742F6273705F64D2
:1005D000656275675F756172742E630000BE704757
:1005E00080B542F2EC2C4FF0000EC2F2002C8CE8E9
:1005F00009408CF80C100620CCF810004FF00C0EBF
:100600000CF1140012F8011B00F8011B0FF007C0D9
:1006100042F2883042F2EC22C2F20020C2F2002202
:10062000002100F083FA80B9022142F2E820CFF6DF
:10063000FF71C2F2002000BF02781AB9002901F14F
:100640000101F9D10021017080BD45F2BB7045F276
:10065000A871C0F20020C0F2002140F2471203F05E
:1006600039F80000F0B581B04CF2001542F248377D
:10067000C4F200050024C2F200272888298C084013
:1006800086B200BF26FA04F0C00703D0396809B16A
:100690002046884701340437102CF3D12E8200BF46
:1006A000288C3042FCD101B0F0BD0000B0B542F260
:1006B0002404C820C4F2200401210025257100F083
:1006C00081F82570207808B12FF005C0207840F01F
:1006D0000200207020788007FCD4002004F8020C6F
:1006E00014F8020C08B12FF005C84FF0030E0020DB
:1006F00004F11C0111F8102002F07F0201F8102013
:1007000011F91020002AFBD401300FF00DC8012090
:1007100000F00BF84EF64C410120C4F2010100221A
:100720000A70BDE8B04000F026B810B5EFF31081B4
:10073000012282F3108842F2B032C2F2002232F873
:10074000103083B94EF2FA3E45F2242CC4F2010E69
:10075000C0F2002CBEF800403CF81030234343F4B4
:100760002543AEF8003032F81030013322F8103053
:1007700081F3108810BDEFF31081012282F31088FD
:1007800042F2B032C2F2002232F8103023B132F815
:100790001030013B22F8103032F810207AB94EF2B6
:1007A000FA3245F2242CC4F20102C0F2002C138864
:1007B0003CF8100043F4254323EA0000108081F345
:1007C0001088704740F228124CF60023C2F2002233
:1007D000C3F69A33484348F638111268C0F2410113
:1007E000B3FBF2F2884205D24FF47A714843B0FB72
:1007F000F2F006E0B0FBF2F0884206D24FF47A71D4
:10080000484308B103F084BA70474FF0FF3003F05B
:100810007FBA7047022818BF704742F2A83045F2ED
:100820002C21C2F20020C0F2002100F0FFB900002C
:100830002DE9F04F81B0894682460F680022C4F24C
:100840003802D9F810B0D1E9020102EB4736002294
:10085000CAE90502CAF81C100120C7F11B01CAE948
:100860000069DBF81C80EFF3108580F31088884066
:1008700043F20801C4F220010A6822EA000008607D
:10088000086896200121FFF79DFF85F3108800BFBF
:10089000F0690007FCD44EF207444CF20035812188
:1008A0005046CEF20004C4F2000503F043FED8F82F
:1008B000040070614FF48010F0620020C6F8B000B0
:1008C000D8F810103163D8F80810F163D8F80C107C
:1008D000316442F2F83298F81510C2F200224FF457
:1008E000807C090161701062286A20F480302862DF
:1008F000286A4EF20010CEF20000BFF35F8FC0F8FE
:1009000080C1C0F800C0D8F80010B161D8F8181044
:1009100021F00101716587B998F81410090121705F
:10092000C2F81CA0E96921F48031E961E969BFF3EB
:100930005F8F8021C0F88011016042F2F0314FF0EA
:10094000100EC2F20021FB01804606F5907241F8BC
:1009500027A0C6F828C0DBF80010DBB2C6F828C014
:100960000F684D688C68C868D060946055601760E7
:100970001031906820F080001843906010320FF022
:1009800013C80020B06201215046012703F0D2FDB8
:10099000D9F8040042F2F835C2F20025D0E900127D
:1009A000013983686FF39F21C06841EA42415A1EB2
:1009B0004FF60043A1F50031CFF6FF7341EA4261E3
:1009C00003EB802008433060DBF81400D0E900120C
:1009D00001398368C9B2C06841EA02210022CFF61A
:1009E000FF72A1F5807102EB03420138114340F21E
:1009F000014241EA0060C6F80001DBF814009BF8F0
:100A000018104068FF2828BFFF20000440EA41205A
:100A10001043C6F80401DBF80800C6F88800DBF8CC
:100A2000100040F003007060D9F818004CF2003656
:100A30000028C4F200061DD499F8141008EB000237
:100A4000090182F8001345F820A056F8201021F47F
:100A5000803146F8201056F82010410900F01F00A0
:100A6000BFF35F8F08EB810207FA00F0C2F8800144
:100A700048F82100D9F8200000281ED499F8141055
:100A800008EB00020123090182F8001345F820A0B9
:100A900056F8201021F4803146F8201056F8201026
:100AA000410900F01F00BFF35F8F08EB810203FADA
:100AB00000F0C2F8800148F82100D9F81C00002895
:100AC0001ED499F8141008EB00020123090182F8E2
:100AD000001345F820A056F8201021F4803146F884
:100AE000201056F82010410900F01F00BFF35F8F5F
:100AF00008EB810203FA00F0C2F8800148F82100F7
:100B00008021504603F016FD00215046002403F0DA
:100B100011FD44F24460CAE90344C5F24320CAF817
:100B20000800002001B0BDE8F08F0000B0B5936868
:100B30002729D2E9004C44EA837343EACC7313D9E2
:100B4000A1F128054FF04C0C046805FB0C44C4F8D7
:100B5000B835137B092B26D3182B21D803F57E73C8
:100B6000082404EB93031EE0D0F800E00EEB010430
:100B700094F87440240710D44FF04C0C01FB0CE4A3
:100B8000C4F80436137B092B24D3182B1FD803F584
:100B90007E73082404EB93031CE04EF66320B0BD83
:100BA0000B2404EB1313046805FB0C441B07C4F867
:100BB000BC35036805FB0C33146904F00704C3F863
:100BC000C045036805FB0C3303F2C45316E00B2445
:100BD00004EB1313046801FB0C441B070D46C4F817
:100BE0000836036801FB0C33146904F00704C3F8EA
:100BF0000C46036801FB0C3303F5C263147B44F01D
:100C000007C8143212F8014B03F8014B0FF007C06C
:100C10002729006804D900EB8500FF21C16503E0A6
:100C20002844012180F870100020B0BD80B545F245
:100C30005422C5F24F020260084603F0EBFC00208C
:100C400080BD00002DE9F04F81B00D46097848F2D3
:100C500000020446C4F2350205F1380802EB012017
:100C60002062A078E56198E8060120F00300616247
:100C7000431CA3706968E26200294FF000012170F3
:100C8000A16202D140F00200A0704EF20019EA6A9F
:100C9000CEF20009530909F1800102F01F064FF05E
:100CA000010E4CF2003B95F828A00EFA06F641F82A
:100CB0002360C4F2000BBFF34F8FBFF36F8F5BF85D
:100CC00022304EF6185C23F480334BF8223002F0C9
:100CD0000F03CEF2000C181F09F540739F185BF844
:100CE0002260002A48BF00EB0C074FEA0A1042F2CC
:100CF000F83A3870C2F2002A686900F01F062F7CAB
:100D00004AF8224042090EFA06F6002841F822600D
:100D100000F00F06BFF34F8FBFF36F8F5BF82020FB
:100D200022F480324BF82020A6F1040203EB0006E7
:100D300048BF02EB0C065BF820203A013270EA69EA
:100D40004AF82040500902F01F072E7E0EFA07F7DE
:100D500041F8207002F00F07BFF34F8FBFF36F8F82
:100D60005BF82200002A20F480304BF82200A7F123
:100D7000040003EB020748BF00EB0C075BF82200FE
:100D800030013870686A4AF82240420900F01F07B3
:100D900095F820600EFA07F741F8227000F00F0274
:100DA000BFF34F8FBFF36F8F5BF82010043A21F42D
:100DB00080314BF8201003445BF82010002848BF16
:100DC00002EB0C03310119704AF82040EFF3108652
:100DD0008EF3108828784FF0004121FA00F043F29A
:100DE0000401C4F220010A6822EA000008600868D1
:100DF00096200121FFF7E6FC86F310884FF480610E
:100E0000206A81604FF48040296CEA68D5F804C0FC
:100E100000EA8230D1E900376CF30920CE6907F08F
:100E2000010206F0010703F0030340EAC23040EA82
:100E30004752276A42EA0362C86802F580527A6123
:100E40000A6822F00103022B07D14FF60470022A30
:100E5000CFF6007008BF203000E00068226A4FF42F
:100E6000407710618869AB688A6800F00300022B44
:100E700002F0010208BF4FF48077002B18BF3844FE
:100E8000236A40EA027030300022D86040F21F2707
:100E9000206A826101202B7800FA03F33B4204D0E0
:100EA000236A0027C1F61F775F6291F825300F6A29
:100EB00091F8241007F0010703F01F0361F30C27DA
:100EC000216A47EA03430B631023216AC4E9052220
:100ED000C9F60753C4E90322D8F81420A2608B6630
:100EE000E1694A6953095BF8221021F480314BF81B
:100EF00022105BF8221009F5C07102F01F02BFF347
:100F00005F8F00FA02F241F8232049F82320E269BA
:100F1000D26A5BF8223023F480334BF822305BF83E
:100F20002230530902F01F02BFF35F8F00FA02F272
:100F300041F8232049F82320E269D2695BF8223086
:100F400023F480334BF822305BF82230530902F04F
:100F50001F02BFF35F8F00FA02F241F8232049F825
:100F60002320E269526A5BF8223023F480334BF885
:100F700022305BF82230530902F01F02BFF35F8F6B
:100F8000904041F8230049F8230040F21141206AC3
:100F9000C0F201018160206A017FC907FCD044F6DC
:100FA00042110020C5F24331616001B0BDE8F08F0D
:100FB000D0F820C0DCF8083023F44013CCF8083017
:100FC000D0F820C0DCF848305B00FBD5DCF80830F6
:100FD00023F01003CCF80830D0F820C09CF81C3067
:100FE000DB06FBD4C0E903120020DCF8081041F056
:100FF0001011CCF80810704701F00AFC03F039FA20
:10100000FEE70000007844F69071C0F2002108224B
:1010100000F07F0011F8083B984208D0013AF9D15E
:1010200042F238201221C2F200200170704742F2D1
:101030001C200421C2F200200171704770B590F9A4
:10104000003014460D46B3F1FF3F01DDDAB206E091
:1010500042F238210122C2F200214A70027844F69D
:10106000907102F07F06C0F200210822043100BF17
:1010700011F8043C9E420BD0013A01F10801F7D16E
:1010800042F238201221C2F200200170002070BD0F
:101090000B680130691C2246984742F23821C2F29F
:1010A00000210978002918BF70BD2E702168013118
:1010B000216070BD0078411E022909D842F25421F6
:1010C00040F02000C2F2002108800021116000E001
:1010D000312142F238220020C2F200221170704702
:1010E0000078411E022907D842F25421C2F20021A1
:1010F00008800021116000E0312142F238220020F6
:10110000C2F20022117070470078411E022909D8EE
:1011100042F2542140F01000C2F200210880002168
:10112000116000E0312142F238220020C2F2002298
:10113000117070470078411E022909D842F25421EB
:1011400040F03000C2F2002108800021116000E070
:10115000312142F238220020C2F200221170704781
:10116000017842788078120242EA01416FF07F42B2
:10117000084490425FEA1F90012200BF1146C00759
:101180004FF000024FF00100F8D0C80706D042F23D
:101190001C200D21C2F200200171704742F238205C
:1011A0003121C2F2002001707047000090F800C0A9
:1011B000437880781B0243EA0C436FF07F4C18445D
:1011C000012360455FEA1F909C46C0074FF0000373
:1011D0004FF00100F8D05FEACC7007D044F6D07031
:1011E000C0F200204368C81C1146184742F238215B
:1011F0000020C2F2002131220A707047002070479F
:10120000007844F6D871C0F20021042200F07F007B
:1012100011F8083B984208D0013AF9D142F238203F
:101220001221C2F200200170704742F21C200C21F2
:10123000C2F200200171704770B590F90030144679
:101240000D46B3F1FF3F01DDD9B206E042F238218D
:101250000122C2F200214A70017844F6D87001F0F0
:101260007F06C0F200200421043000BF10F8042CD7
:1012700096420BD0013900F10800F7D142F2382034
:101280001221C2F200200170002070BD0268681CAB
:101290002146904742F23821C2F200210978002904
:1012A00018BF70BD2E7021680131216070BD42F2FF
:1012B0005C2042F23823C2F20020C2F20023022254
:1012C0000270002000221A700A60704742F25C200F
:1012D00042F23823C2F20020C2F20023012202703F
:1012E000002000221A700A6070470000007844F65F
:1012F000F871C0F20021052200F07F0011F8083BD0
:10130000984208D0013AF9D142F238201221C2F2B3
:1013100000200170704742F21C200121C2F200201F
:101320000171704770B590F9003014460D46B3F165
:10133000FF3F01DDD9B206E042F238210122C2F2BC
:1013400000214A70017844F6F87001F07F06C0F27F
:1013500000200521043000BF10F8042C96420BD069
:10136000013900F10800F7D142F238201221C2F20F
:1013700000200170002070BD0268681C2146904763
:1013800042F23821C2F200210978002918BF70BD4D
:101390002E7021680131216070BD00000000000046
:1013A00070B542F25D260D46C2F200260446327840
:1013B000022A01D0FFF7D9F809A00121317042F2C9
:1013C0003821C2F2002190ED001F04202860002087
:1013D00084ED000F00220A7070BD00BF00BF00BF87
:1013E0000000000032000000130000008800000030
:1013F00070B542F25D26C2F200263278022A01D18F
:101400007E210CE00D460446FFF7AFF808A004214A
:1014100031702960002190ED001F84ED000F42F231
:1014200038220020C2F20022117070BD00BF00BF40
:1014300000000000320000001300000088000000DF
:1014400070B542F22422C2F200221268127812F021
:10145000550F0BD042F25D260446C2F200263078CA
:10146000012805D142F238207E2110E000BF11E0B2
:101470000D46FFF77AF808A002213170002190EDA7
:10148000001F0420286042F2382084ED000FC2F2D1
:1014900000200170002070BD00000000320000003C
:1014A000130000008800000001220A6042F2382187
:1014B0000270C2F20021002000220A707047000072
:1014C00007A292ED001F04220A6042F2382180ED4B
:1014D000000FC2F20021002000220A70704700BFF6
:1014E00001000000010000000100000004000000F5
:1014F00004220A604FF00131016042F238210020DD
:10150000C2F2002100220A70704701220A6042F2F2
:1015100038210270C2F20021002000220A707047B8
:1015200009220A60012101724FF00131416001601E
:1015300042F23821C2F20021002000220A707047D6
:1015400002220A6040F20121018042F2382100208B
:10155000C2F2002100220A70704702220A6040F2A3
:101560000121018042F238210020C2F20021002234
:101570000A70704702220A6040F20121018042F2A3
:1015800038210020C2F2002100220A707047022296
:101590000A6040F20121018042F238210020C2F2AB
:1015A000002100220A70704702220A6040F20121E5
:1015B000018042F238210020C2F2002100220A708C
:1015C000704702220A6040F20121018042F2382174
:1015D0000020C2F2002100220A707047007845F214
:1015E0002001C0F20021032200F07F0011F8083B27
:1015F000984208D0013AF9D142F238201221C2F2C1
:1016000000200170704742F21C200221C2F200202B
:101610000171704770B590F9003014460D46B3F172
:10162000FF3F01DDD9B206E042F238210122C2F2C9
:1016300000214A70017845F2200001F07F06C0F2D7
:1016400000200321043000BF10F8042C96420BD078
:10165000013900F10800F7D142F238201221C2F21C
:1016600000200170002070BD0268681C2146904770
:1016700042F23821C2F200210978002918BF70BD5A
:101680002E7021680131216070BD42F25E2001217F
:10169000C2F200200022017042F23821C2F2002181
:1016A00000200A70704742F238210020C2F2002167
:1016B00000220A70704742F25E200121C2F200202F
:1016C0000022017042F23821C2F2002100200A708B
:1016D00070470000007845F23801C0F20021052271
:1016E00000F07F0011F8083B984208D0013AF9D188
:1016F00042F238201221C2F200200170704742F2FB
:101700001C200821C2F200200171704770B590F9C9
:10171000003014460D46B3F1FF3F01DDDAB206E0BA
:1017200042F238210122C2F200214A70027845F2C9
:10173000380102F07F06C0F200210522043100BF0B
:1017400011F8043C9E420BD0013A01F10801F7D197
:1017500042F238201221C2F200200170002070BD38
:101760000B680130691C2246984742F23821C2F2C8
:1017700000210978002918BF70BD2E702168013141
:10178000216070BD002070470020704770B506785A
:10179000154643780C46002143EA0626B6B2B6F554
:1017A0007F4F0DDA40F20320864203D04FF2010052
:1017B000864278D1032028600120A07000206DE0CF
:1017C0004FF6017296422BD0B6F57F4F6BD142F2A5
:1017D000882142F26022C2F20021C2F2002209787E
:1017E00001294FF00101117056D1517800295CD0C8
:1017F000D0789678864256D8711C56685FFA81FC7C
:1018000006F5006684455660917040F29A8000208B
:10181000507003212960FF2121706370A0708BE05C
:1018200049A003F06BF84FF6F0704FF6F071C0F27C
:101830001100C0F2010102684FF48010FEF780FE33
:10184000064645F2D67045F2CE71C0F20020C0F2D5
:101850000021002E50EA018003F092FA40A003F02C
:101860004DF84FF6F0704FF48031C0F21D00026861
:101870004FF49010FEF764FE30B145F2CE70C0F226
:10188000002003F07DFA07E045F2D670C0F2002098
:1018900003F076FA002E48D00021222042F23822AE
:1018A000C2F200221070C8B270BD8178442945D1BF
:1018B000C1780B06536003791B0443EA0161516050
:1018C000437941EA03215160837919445160C37916
:1018D0001E069660067A360446EA03639360467AEB
:1018E00043EA06239360867A4FF6F070C0F2010057
:1018F0001E4400F111048D199660013DA5420BD3E1
:101900000F3081424FF000014FF03100C6D9002E58
:10191000C4D0B5F5801FC1D84FF0FF30012100EBD6
:10192000D320D070A2F801100CE000F00CFF0320CF
:1019300028600120A07000200021AFE700213120A5
:10194000ACE701217820A9E7436865636B20424F2B
:101950004F54206669726D776172653A200000000D
:10196000436865636B20415050206669726D7761F2
:1019700072653A2000000000C90735D12DE9F04119
:1019800040F2D0080446C2F2002856214046FEF735
:1019900030FC42F22420C2F20020C0680068013806
:1019A0001AD045F2600C0021C0F2002C0023625ACC
:1019B0002B25664652BA00BF36F8087BBA4203D0E0
:1019C000013DF9D117E000BF0231DFB2C9B20133E6
:1019D000814228F81720EAD342F21C200621C2F2E5
:1019E00000200171BDE8F08142F238201321C2F2DB
:1019F00000200170704742F238203121C2F20020ED
:101A00000170BDE8F08100002DE9F04F83B0481C63
:101A1000019045F2600040F2D006C0F2002042F290
:101A2000382914468846002701F1020BC2F200262D
:101A3000051D0DF1080AC2F20029176036F81700DB
:101A40002B212A4632F8043C984205D0013902F194
:101A50000802F7D1002017E0206812685844514668
:101A6000904799F8001079B906EB47012268019B6D
:101A7000497808F80210216816F817205A5402997C
:101A8000226811440231216028B999F8001011B977
:101A900001372B2FD2D103B0BDE8F08F000000003A
:101AA00007A292ED001F04220A6042F2382180ED65
:101AB000000FC2F20021002000220A70704700BF10
:101AC000010000000100000001000000040000000F
:101AD00010B504464FF46170086040F28331AA22C9
:101AE0002046FEF77FFB42F238219020C2F200210F
:101AF00084F88303002000220A7010BD02461020E3
:101B000008604FF00130C2F80B0090605060106028
:101B100042F238200021C2F200200170002016217C
:101B2000D17370470246102008604FF00130C2F8B0
:101B30000B0090605060106042F238200021C2F229
:101B40000020017000201621D173704710B50446A3
:101B500018200860172101222046FEF743FB42F2BD
:101B600038212420C2F20021E075002000220A70F2
:101B700010BD00000000000010B5044618200860E9
:101B8000172101222046FEF72DFB0DA02421E1752F
:101B900090ED001F4FF46170102100F001E000BFD4
:101BA000A4EC101E01EE410F1FF007C042F23821D5
:101BB0000020C2F2002100220A7010BD00BF00BF49
:101BC000000102030405060708090A0B0C0D0E0F9D
:101BD00010B5044618200860172101222046FEF7A0
:101BE00001FB42F238212420C2F20021E0750020DE
:101BF00000220A7010BD06220A6040F20161818055
:101C00004FF00131016042F238210020C2F2002180
:101C100000220A70704701220A6042F238210270E5
:101C2000C2F20021002000220A707047000000006C
:101C300007A292ED001F04220A6042F2382180EDD3
:101C4000000FC2F20021002000220A70704700BF7E
:101C5000010000000100000001000000040000007D
:101C600002220A6040F20121018042F23821002064
:101C7000C2F2002100220A7070470000000000003C
:101C800007A292ED001F04220A6042F2382180ED83
:101C9000000FC2F20021002000220A70704700BF2E
:101CA000010000000100000001000000040000002D
:101CB00002460F20086040F2011090814FF0013081
:101CC00090605060106042F23820C2F20020002183
:101CD0000170002015219173704701220A6042F2C1
:101CE00038210270C2F20021002000220A707047E1
:101CF00001220A6042F238210270C2F20021002063
:101D000000220A70704701220A6042F238210270F4
:101D1000C2F20021002000220A70704701220A60EE
:101D200042F238210270C2F20021002000220A7023
:101D3000704701220A6042F238210270C2F200218B
:101D4000002000220A70704701220A6042F2382106
:101D50000270C2F20021002000220A7070470122A6
:101D60000A6042F238210270C2F2002100200022F3
:101D70000A70704701220A6042F238210270C2F2F2
:101D80000021002000220A70704710B50446202070
:101D900008601F2101222046FEF724FA42F2382172
:101DA0003220C2F20021E077002000220A7010BD2C
:101DB0000C220A604FF0013181604160016042F203
:101DC00038210020C2F2002100220A70704710B5AD
:101DD000044613200860122101222046FEF702FA71
:101DE00042F238211920C2F20021A0740020002202
:101DF0000A7010BD01220A6042F238210270C2F25C
:101E00000021002000220A7070470246102008605E
:101E10004FF00130C2F80B0090605060106042F249
:101E200038200021C2F20020017000201621D17359
:101E3000704710B50446182008601721012220467B
:101E4000FEF7D0F942F238212420C2F20021E075D9
:101E5000002000220A7010BD024642F2382CC2F265
:101E6000002C03230B6040F20110108000200021A1
:101E70008CF800109370704707A292ED001F0422A7
:101E80000A6042F2382180ED000FC2F200210020EA
:101E900000220A70704700BF01000000010000002E
:101EA000030000000400000010B504462420086070
:101EB0001F2101222046FEF795F909A042F23821A0
:101EC000C2F20021002290ED001F362084F823008A
:101ED000002084ED1F0F0A7010BD00BF00BF00BFBF
:101EE000320000003200000032000000200000003C
:101EF0000246112008604FF00130D06090605060C1
:101F0000106042F238200021C2F20020017000204F
:101F10001721117470470A220A6041F20101018100
:101F20004FF001314160016042F23821C2F20021DC
:101F3000002000220A707047007845F2B811C0F204
:101F40000021052200F07F0011F8083B984208D0DC
:101F5000013AF9D142F238203121C2F20020017059
:101F6000704742F21C200E21C2F20020017170471E
:101F700070B590F9003014460D46B3F1FF3F01DD16
:101F8000DAB206E042F238210122C2F200214A70A0
:101F9000027845F2B81102F07F06C0F20021052256
:101FA000043100BF11F8043C9E420BD0013A01F10C
:101FB0000801F7D142F238201221C2F2002001704C
:101FC000002070BD0B680130691C2246984742F220
:101FD0003821C2F200210978002918BF70BD2E7087
:101FE00021680131216070BD2DE9F04344F6A4530E
:101FF000C0F200231B7843F02BC044F6A85501F132
:10200000010CC0F2002501F1020801F103091C35A1
:10201000166800BF2F6803783C781C4212D035F850
:102020001C3C1B0A8B5535F81C3C14680CF804301A
:1020300015F81A3C146808F8043013683C7809F85D
:10204000034016680436243516600FF01DC80020C2
:10205000BDE8F0832DE9F04144F6A45390F800C0A8
:10206000C0F2002393F800E0BEF1000F1AD04378CD
:10207000002690F8028043EA0C2544F6A853C0F2EB
:10208000002303F11C0700BF3B6837F81C4CA54236
:1020900003D117F81A4CA04507D001362437B645AE
:1020A000F2D119E00024002300E0F4B2744513D00B
:1020B00081F800C047784F70807888701878C870B1
:1020C000012008715879487198798871D879C87158
:1020D000187A0872092010600020BDE8F081000025
:1020E0002DE9F04344F6A45390F800E0C0F2002339
:1020F00090F803C093F80090B9F1000F18D044781D
:10210000002790F8028044EA0E2544F6A854C0F255
:1021100000241C34266834F81C3C9D4203D114F87A
:102120001A3C984507D001372434B945F2D121E053
:102130000024002600E0FCB24C451BD081F800E0F2
:10214000BCF1010F43784B7080788870307881F84B
:1021500004C0C87004D0BCF1FF0F0BD1012000E017
:102160000020487140F20220C8804FF01130886092
:102170000C2010600020BDE8F0830000B0B544F6EC
:10218000A4534FF0000CC0F200231C78002344F04D
:1021900011C844F6A8530078C0F2002303F11C04D0
:1021A000002300BF54F8245B2D78054253EA0393C3
:1021B0000FF009C040F249100880002081F802C0E9
:1021C000CB7004211160B0BDF0B544F6A450492590
:1021D000C0F200200378084600F8035B0125156073
:1021E00043F01FC844F6A85401F1010CC0F20024CA
:1021F0008B1C1C34266834F81C7C3F0A4F5534F87D
:102200001C5C17680CF8075014F81A5C1768243423
:10221000DD551568367846551568043515600FF09C
:1022200017C80020F0BD42F21C200921C2F2002094
:1022300001717047AFF300802DE9F04142F2785709
:10224000C2F200273B780BB1702154E0904642F275
:10225000845206468078C2F200220C460106757947
:1022600011603179F3781B0443EA012142F288536B
:102270002944C2F2002341EA00611160A1F18050BB
:10228000D6F80620A0F50040B0F5C06F12BA1A606B
:102290000AD840F20250A2F58073834225D245F25B
:1022A000E170C0F200201BE00020B0EB514F09D1DB
:1022B0004FF60273A2F58070C0F20103984214D267
:1022C0002FA00DE0B0EB115F0ED14FF60270A2F51A
:1022D0008073C0F2010000F54020834205D21CA0AB
:1022E00002F00CFB4FF470607880307858B130A069
:1022F00002F046FD312142F238220020C2F20022D3
:102300001170BDE8F08170784428F0D178880028F9
:10231000EDD029A002F034FD42F27C520021C2F23D
:10232000002242F28E53C2F200230120117042F2C9
:102330008F52C2F200223870187010700320C8F853
:1023400000004FF4726020800220A070D3E700BF2D
:102350005265717565737420646F776E6C6F61641C
:10236000204150503A20416464725B253038785DDA
:102370002C2053697A655B253038785D2C2000006D
:102380005265717565737420646F776E6C6F6164EC
:1023900020426F6F743A20416464725B2530387854
:1023A0005D2C2053697A655B253038785D2C2000E0
:1023B0005B4661696C5D0D005B53756363657373A8
:1023C0005D0D000042F21C200B21C2F200200171C1
:1023D0007047AFF3008042F27C50C2F200200078D8
:1023E000012807D142F278500021C2F2002011608A
:1023F000017000E0242142F238220020C2F20022C3
:1024000011707047007845F2E011C0F200210622F9
:1024100000F07F0011F8083B984208D0013AF9D14A
:1024200042F238201221C2F200200170704742F2BD
:102430001C200321C2F200200171704770B590F991
:10244000003014460D46B3F1FF3F01DDDAB206E07D
:1024500042F238210122C2F200214A70027845F28C
:10246000E01102F07F06C0F200210622043100BF15
:1024700011F8043C9E420BD0013A01F10801F7D15A
:1024800042F238201221C2F200200170002070BDFB
:102490000B680130691C2246984742F23821C2F28B
:1024A00000210978002918BF70BD2E702168013104
:1024B000216070BD70B542F26C26C2F200267068D1
:1024C00008B1372129E0307815460C4638B142F280
:1024D00078211020C2F20021FDF7F6FE08E042F25A
:1024E00078200021C2F20020C0E90011C0E90211E9
:1024F0007078012801D0012070704FF0100EC5F8DF
:1025000000E042F27820C2F2002000BF10F8011B68
:1025100004F8011B00210FF007C842F23822002006
:10252000C2F20022117070BD2DE9F04184B042F278
:102530006C27C2F20027797801291AD1054642F2A8
:1025400078206E469046C2F20020102132461024B8
:10255000FDF7AAFE16F8010B15F8011B81420AD1FE
:10256000013CF7D100213980B9707960C8F80010BA
:102570000FE024210DE0B87800227A700130B870A5
:10258000C1B2032904D342F210707860362100E012
:10259000352142F238220020C2F20022117004B02C
:1025A000BDE8F08142F21C200A21C2F20020017134
:1025B0007047AFF300800020704745F2102100788B
:1025C000C0F2002100F07F000978884206D142F273
:1025D0001C200521C2F200200171704742F2382010
:1025E0001221C2F2002001707047000070B590F90E
:1025F000003014460D46B3F1FF3F01DDDAB206E0CC
:1026000042F238210122C2F200214A70027845F2DA
:10261000102002F07F06C0F200200123017800BFE5
:10262000DA0703D08E424FF00003F9D182B142683D
:10263000681C2146904742F23821C2F200210978F5
:10264000002918BF70BD2E7021680131216070BD56
:1026500042F238201221C2F200200170002070BD29
:1026600042F238230020C2F2002300220A601A70CE
:102670007047000080B545F2182C0088C0F2002C8D
:102680000122BCF800E043BAD00703D073454FF0F5
:102690000002F9D150B1DCF8040088420AD142F2BC
:1026A0001C200721C2F20020017180BD42F23820B7
:1026B000312102E042F238201321C2F200200170E1
:1026C00080BD00002DE9F04145F2182C0678C0F2DB
:1026D000002C47780D469046BCF8001047EA0622C9
:1026E000012400BFE30703D08A424FF00004F9D170
:1026F000BBB1DCF808300230A91C4246984742F2D0
:102700003821C2F200210978002918BFBDE8F08104
:102710002E706F70D8F800100231C8F80010BDE8B4
:10272000F08142F238203121C2F2002001700020F5
:10273000BDE8F08142F238230020C2F200230021DC
:102740001160197070470020704742F2BC30C2F22D
:10275000002001680131016042F24430C2F20020E1
:102760000168013101600168012918BF704700212B
:10277000016042F240300121C2F200200170704736
:102780004EF22401C4F201018878097801F00F01AA
:102790000A291FD009290FD0082929D142F29051C6
:1027A000C2F2002151F820004AF6AB21CAF6AA2154
:1027B000A0FB0101480822E042F29051C2F2002140
:1027C00051F820004AF6AB21CAF6AA21A0FB01016C
:1027D000880814E042F29051C2F2002151F8200022
:1027E0004AF6AB21CAF6AA21A0FB0101C80806E0FF
:1027F00042F29052C2F2002252F82000C84040F249
:102800002811C2F20021086070470000000000009B
:102810002DE9F0414EF6145840F20120CEF20008A6
:10282000C0F20E0040F200050024C8F800004EF28D
:102830000000BFF34F8FCEF20100C0F20025BFF3BE
:102840006F8F016841F0040101604EF20800BFF390
:102850004F8FCEF20000BFF36F8F016841F48031DB
:102860000160BFF34F8FBFF36F8F4FF47001C8F853
:102870007410C0F8005D0020FDF7CCFF01F000F9F6
:102880000120FDF7C7FF286842F22851A0F58040DB
:1028900080F30A8840F26800C0F20001C2F2002012
:1028A000FDF7A7FC40F2000045F6680140F268021F
:1028B000C2F20020C0F20021C0F20002FDF780FC4D
:1028C00045F6E00045F6E001C0F20020C0F200212C
:1028D00045F6E00545F6E003091AC0F20025C0F20E
:1028E000002340F20007C908C0F200075E1B41F058
:1028F00009C800BF00BF00BFF0E80223E7E80223D9
:102900000FF007C040F2000140F20002C2F20001E5
:10291000C2F2000240F20003F008521AC2F20003B1
:1029200040F009C000BF00BFF5E80267E3E80267B6
:102930000FF007C0D208254642F007C000BF00BF15
:10294000E1E802450FF005C0BFF34F8F40F2C0151C
:1029500040F2C010BFF36F8FC8F83C42C0F20025B0
:10296000C0F20020BFF34F8F401BBFF36F8F861064
:10297000012E07DB2F4600BF57F8040B2844804781
:10298000013EF9D1FFF7FCFEFDF790FE0320FDF7B5
:10299000CCFE4FF0100E40F63050C4F2400000BFA5
:1029A00020F8044B0FF005C04EF210140320C4F2BF
:1029B0000104FDF7E0FE0320FDF7B7FE44F204003A
:1029C0000021C4F22000016041608160C1600320E9
:1029D000FDF7D1FED4F8C80210B1D4F8C80213E054
:1029E000207888B10120FDF7A0FE00BF207800F01C
:1029F000C0008028FAD10020207000BF20783F2836
:102A0000FCD80120FDF7B7FE0220FDF703FF01F01F
:102A100069F90020BDE8F04101F062B940F2AC0074
:102A200042F28C51C2F20020C2F20021C06800289C
:102A30005FEA0F90087001D000F0CEBA00F080B9C4
:102A400040F2980C40F2C411C2F2002CC2F20021F4
:102A500040F2AC0241F21C23CCF8081041F2C8113C
:102A6000C2F20022C2F20021C2F2002341F2CC10D5
:102A7000936000230B7042F28C51C2F20021C2F22B
:102A80000020D3608CF810300B7040F23811A0F8A1
:102A90004E300360838040F28600C2F20021C2F211
:102AA000002081F84A30A1F848300B608B804371D8
:102AB000704700002DE9F04340F23810C2F20020C8
:102AC00090F84A1001294DD140F2841E8279C2F259
:102AD000002E9EF8001001F00F0191424FF0960277
:102AE000828041D140F22C12B1F10F03C2F20022D8
:102AF00053EA019181711768012F08BFBDE8F08387
:102B0000B0F8481040F2980340F28C0440F23018BC
:102B10004FF0000CC2F20023C2F20024C2F20028DF
:102B20004FF001090025002775449E6889B26D7831
:102B30007554B0F84810A5680131A0F848108EB25D
:102B4000B54207D898F80060DD60DE7083F8109019
:102B500080F84AC001371668BDB2013EAE42E3D8E4
:102B6000BDE8F083072000E0052040F29801C2F2A2
:102B700000210874BDE8F08340F23810C2F2002052
:102B800090F84A1031B140F298000721C2F20020BB
:102B90000174704770B540F2841140F22C12C2F2F9
:102BA0000021C2F2002240F2341E40F28C0C0B785D
:102BB00012684D78C2F2002E03F00F03C2F2002C0F
:102BC000082A98BF082255EA0323CEF80020CCF843
:102BD00008301ED0023A9A4251D840F2980200249E
:102BE000C2F2002200250023A0F848400D44966858
:102BF000A4B20133AD7835559DB2DEF80040B0F88F
:102C00004860023CAC4206F10104A0F84840EDD80F
:102C100028E08A780C79CB781B0443EA026242EA06
:102C200004222244CCF80820B2F5805F27D3B0F804
:102C3000485040F298020024C2F20022002300BF54
:102C40000C449668ADB20133A47874559CB2DEF89A
:102C50000050B0F84860063DA54206F10105A0F815
:102C60004850EDD840F230120121C2F200228171A9
:102C70000321017011788CF80310002100E00A2173
:102C800040F29802C2F200221174022180F84A1028
:102C900070BD000010B540F2381040F29804C2F246
:102CA0000020C2F2002490F84A0008B1072244E054
:102CB00040F22C11C2F200210B68082B1DD840F203
:102CC000841EC2F2002E9EF8002012F00F0C4FF06E
:102CD0000A02C4F80CC030D0013B63452DD300225A
:102CE000002300BF02EB0E01A06801334978815434
:102CF0009AB2E0689042F5D816E040F2841CC2F225
:102D0000002C9CF80100E060421E3D2A14D80022ED
:102D1000002300BF02EB0C00A168013380788854C7
:102D20009AB2E0689042F5D840F230100122C2F227
:102D300000200078E07000E00A22227410BD00003C
:102D4000B0B540F23815C2F20025687870B16888D5
:102D500018B101386880010477D100206870022022
:102D600040F29801C2F20021087474E02878022829
:102D70002FD342D0032858D140F22C10C2F20020A9
:102D8000006848B100210023002200BF0132EC1886
:102D900093B221729842F9D840F28C000121C2F21C
:102DA00000208068000B4FF030001CBF3220032150
:102DB00085F84A1040F2021128724FF40070A5F80D
:102DC00009000020C0F24601E87129609620A88021
:102DD0003BE041F2C810C2F200200178012934D151
:102DE00040F284110022C2F200210270097801F041
:102DF000F001102924D0A9B127E041F2C810C2F295
:102E000000200178012913D140F284110022C2F27E
:102E100000210270097801F0F001202913D0102957
:102E20000ED029B9FFF736FF0FE0002028700CE024
:102E3000A88818B10138A880010406D104208FE7C2
:102E4000FFF79AFE01E0FFF735FE40F29800C2F26C
:102E50000020007C18B10020287085F84A00B0BD21
:102E600070B582B041F2C41340F28415C2F200235F
:102E7000C2F200250646144618602846FDF7A0F960
:102E800040F2DF70864210D0B6F5FE6F2AD1287866
:102E9000022806D168783E2804BFA8785FEA40611E
:102EA00022D040F22C1004210EE028780F2819D8E7
:102EB000022806D168783E2804BFA8785FEA4061FE
:102EC00012D040F22C100821C2F20020046040F21F
:102ED0003010C2F20020017041F2C810C2F200208E
:102EE0000121017002B070BD42F274210122C2F2D0
:102EF0000021002841F288300A7042F21C21C2F2FF
:102F000000214880EED140F2BC004FF4FF61C2F2D4
:102F10000020002500230092047140F23814C2F210
:102F20000024016047F60261026124F8081F4FF097
:102F3000CC31C0E902452246C4F803106FF03301DA
:102F4000E17141684FF4FF60A570FDF749FB04F89B
:102F5000075CC7E72DE9F04182B040F2381640F235
:102F60002C18C2F2002640F2BC04C2F20028C2F2C1
:102F700000247078012812D1D8F8000020714FF495
:102F8000FF6006F108020023206061680125002728
:102F9000C4E9022725610095FDF722FB777041F215
:102FA000CC16C2F200267078012812D1D8F80000A1
:102FB000207104F1080106F10E024FF4FF600127B1
:102FC00000250023A4C1616820600097FDF708FB7D
:102FD000757002B0BDE8F0812DE9F04141F2CC14EA
:102FE000C2F20024607878B1608820B10138608036
:102FF000010440F0FC8000206070022040F2860155
:10300000C2F200214871FBE02078022835D35DD060
:10301000032840F0A18041F2C810C2F200200178DC
:10302000012940F09C8040F28411C2F200210A780C
:1030300002F0F003302B4FF00003037040F08F805C
:1030400002F00F00022800F0E780012800F0E18084
:10305000002840F0E3808878497842B2A172B2F14A
:10306000FF3F00F3DE8002F10F01C9B2082900F230
:10307000D780F03880B24008D3E040F22C1040F204
:10308000AC06C2F20020C2F200260768F568791E7D
:10309000681E884220D24FB100200022002100BFCC
:1030A0000131A3188AB298739742F9D8B068002109
:1030B0000022A5730132435C0F1991B28D42FB735C
:1030C000F8D8012060704621618097E720890028A8
:1030D0004DD0013820818AE00020B0EB153F4FF041
:1030E0000A007FF48BAF8D427FF688AF4FF0010866
:1030F000012F57EA888104F10E00FDF77AF81020BD
:10310000B91E00EB1520A0734FF00000E573A4F882
:103110004E0011D0B268002600270023B6B2274423
:103120000133965D3E749FB2B4F84E60B94206F129
:103130000106A4F84E60F1D840F2860240F2031175
:10314000C2F20022C0F2460184F806802160962176
:10315000A1805071BDE8F0810020207047E0A08878
:1031600018B10138A080010441D1032046E740F2A4
:103170002C10A189C2F200202181006840B10021F9
:10318000002300220132E71893B2B9739842F9D8AC
:10319000A0790723421C00F12001A173D1B20F29AD
:1031A00040F2AC01C2F200214FF0000252EA8090DE
:1031B00004F10F02A071D1E9020100BF9BB1B4F884
:1031C0004E70013BC75D02F8017BB4F84E700137C9
:1031D000A4F84E70BEB2B142F0D840F28600012190
:1031E000C2F200204171012060704620608040F2F0
:1031F0008600C2F200204079002808BFBDE8F081B7
:1032000040F2AC000021C2F200202170C160BDE894
:10321000F0819620A080EAE70920EFE60620EDE69F
:103220007F20A0810021E1712081022095E780B5F7
:10323000FFF790FE00F00DF8FFF7F0FBBDE88040CF
:1032400000F03FBA80B5FFF7FBFBBDE8804000F01F
:103250000EB842F26C20C2F20020416831B101394F
:10326000416003D1817809B100218170704740F23B
:10327000980042F22421C2F20020C2F20021C21CB6
:1032800000F10C030A6082681030086142F23820B5
:10329000C1E90223C2F20020FF213323017040F272
:1032A000AC01C2F200218A680C31C0E9012142F26E
:1032B0001C20C2F20020002141F2883201714280BC
:1032C00042F25D200122C2F20020027042F254203C
:1032D000C2F20020038042F25E20C2F2002042F2DD
:1032E0006C23C2F20023017042F27420C2F200206B
:1032F0001A809970596001707047000070B542F2F1
:10330000242142F25D26C2F20021C2F200260869A1
:103310000278012A26D10022027042F27420012292
:10332000C2F2002041F288330E24027042F21C22C5
:10333000C2F200228868538044F6B0620378C0F27B
:1033400000220B710C3200BF12F80C5CAB4226D08D
:10335000013C02F11002F7D142F238201121C2F2F1
:10336000002001703078022809D0042806D142F2EA
:103370003820C2F200208068006840B370BD42F27D
:103380003820C2F2002080680068002818BF70BD95
:1033900042F21C20C2F200204188F1B93AE00B68E9
:1033A00012F80B5C1B781D421AD0337812F80A5CB5
:1033B0001D4217D012F8093CC3B142F26C23C2F28D
:1033C00000231B7893B142F238203321C7E742F241
:1033D0001C20C2F200204188B1B10139418070BD8A
:1033E00000BFBFE742F238207F21B8E7C96852F832
:1033F000083C0968994203D352F8043C99420ED91B
:1034000042F238201321AAE742F274200021C2F2CE
:1034100000200170FDF7A9F80120307070BD42F264
:1034200038230139C2F200231268013089B2002525
:103430005D70904796E7000010B542F21C24C2F27E
:10344000002420790E2800F2F780DFE810F0F70062
:103450000F006F007F003F009F00BF008F00E30060
:103460005F00CF002F004F00AF001F0042F224206A
:1034700042F23821C2F20020C2F200218068D1E974
:10348000011201300131FDF74DFFD2E042F224205C
:1034900042F23821C2F20020C2F200218068D1E954
:1034A000011201300131FEF763FDC2E042F2242037
:1034B00042F23821C2F20020C2F200218068D1E934
:1034C000011201300131FEF784FFB2E042F2242004
:1034D00042F23821C2F20020C2F200218068D1E914
:1034E000011201300131FDF7A9FDA2E042F22420D2
:1034F00042F23821C2F20020C2F200218068D1E9F4
:10350000011201300131FDF797FE92E042F22420D2
:1035100042F23821C2F20020C2F200218068D1E9D3
:10352000011201300131FEF785FE82E042F22420D3
:1035300042F23821C2F20020C2F200218068D1E9B3
:10354000011201300131FEF765F872E042F22420E9
:1035500042F23821C2F20020C2F200218068D1E993
:10356000011201300131FEF769FF62E042F22420CE
:1035700042F23821C2F20020C2F200218068D1E973
:10358000011201300131FFF79DF852E042F2242090
:1035900042F23821C2F20020C2F200218068D1E953
:1035A000011201300131FFF721F842E042F22420FC
:1035B00042F23821C2F20020C2F200218068D1E933
:1035C000011201300131FDF7F1FD32E042F2242019
:1035D00042F23821C2F20020C2F200218068D1E913
:1035E000011201300131FEF70FFA22E042F22420ED
:1035F00042F23822C2F20020C2F20022D0E90201D7
:1036000001300988D2E901230139013289B2FEF77C
:10361000D0FF0EE042F2242042F23821C2F2002014
:10362000C2F200218068D1E9011201300131FEF7B8
:103630006DF8002818BF10BD0020207110BD42F2A7
:103640003820C2F200200278FF2A08BF704742F2F9
:10365000242CC2F2002CDCF800301B78082B05D19A
:10366000302A19DCA2F11103022B1BD36AB1D0E975
:103670000123032119607F21117041689CF8042007
:103680004A70027841688A7018E04278012A0CD1A9
:1036900081680022427010E0A2F17E03022B01D368
:1036A000312AE4D18168002207E09CF804104268C6
:1036B0004031117081680A6801320A60FF2101708F
:1036C000704780B5FFF71AFEFFF7B6FEBDE88040F1
:1036D000FFF7B5BF00BE00BFFEE700002DE9F04FC9
:1036E0008BB045F2A8680446002AC0F20028069272
:1036F000049149D00B4600274FF0030C13F8046BDC
:103700004A7B44F6A460C0F20020049918F8022015
:10371000C55D887B0499724082EA05060E700499A3
:1037200018F800204D780499C87B04996A404A70C3
:10373000049918F800208D780499087B04996A4050
:103740008A70049918F80020CD786A40CA7091FDFB
:10375000000F4CF001E01A4692FD002F00FF5201CD
:10376000A2EC040F0FF009C001370A2FC8D14FF0A7
:10377000100E20460A4600BF037812F8017B7B40FA
:1037800000F8013B0FF009C000254FF01B0CE01CB6
:103790000190081D009001F10F000290059400BFF8
:1037A000069868B30C2040F001E0029A137812F8F2
:1037B000047C7B4002F801390FF009C04A7B44F6D3
:1037C000A460C0F200200F78431B8E7B18F8022003
:1037D0005B7A7A40CF7B5A400A7018F806204B7803
:1037E0005A404A7018F807208B780F7B5A408A702D
:1037F00018F80720CB785A40CA70002229E000BF91
:103800001020224640F001E00B4600BF177813F865
:10381000016B774018F8077002F8017B0FF00BC0BE
:10382000677962786770677A6771677B6273A27A7B
:10383000A378A270A27BA679A271E27AA372E37B3D
:10384000E273E2796772E778E2720922A673E771A0
:10385000E3709542039500F098800420002140F029
:1038600001E04FF00309DDF804A000BF1AF803BC23
:1038700006980991C0B31AF8012C8B001AF8027C43
:1038800043F0020082EA0B060A9071B275009AF8C2
:103890000040002948BF8CEA460569B2680000294B
:1038A00043F0010148BF8CEA4500089184EA070112
:1038B0004DB24E00002D8BEA000B48BF8CEA41064A
:1038C00071B27500002980EA020848BF8CEA4605FB
:1038D0006F4043F003016C4007910AF8027C0AF83C
:1038E000018C8AF800400DE01AF8027C9AF800403A
:1038F0001AF8018CA9F102000890A9F101000A90C0
:10390000CDF81C9087EA0B021B2350B2510088EAC5
:103910000705002848BF8CEA42016FB24FEA450C08
:1039200084EA0800002F48BF83EA450C514045B2A5
:103930008BEA0C074FF01B0C460041404740002D1E
:1039400048BF8CEA400684EA0B0009F1040945B23D
:103950004300002D81EA0B0148BF8CEA400382EA54
:1039600006000AF8031C6040059C08990AF1040A45
:10397000675482EA03010A9AA05481EA0800079971
:103980006054099901310FF08FC8069880B3607BAD
:10399000617A617361786070A07AA278A070E07932
:1039A000E778E070E07A63796171A17BA272A27915
:1039B000E071E07B6372A273A171E072E773102083
:1039C00045F2A86840F001E045F2A8560499224665
:1039D0000B46C0F20028039DC0F20026107813F8B1
:1039E000017B305C784002F8010B0FF009C831E030
:1039F000049945F2A868C0F2002844F6A462487B06
:103A0000C0F20022039D0F788B7B18F80000525DF6
:103A100078405040087018F803004B78CA7B584033
:103A2000487018F802008B780A7B5840887018F8A4
:103A30000200CA785040C870032091FD000F40F08A
:103A400001E0009A92FD002F00FF5201A2EC040F4A
:103A50000FF009C001350A2D7FF4A2AE069848B9CF
:103A60004FF0100E207811F8012B504004F8010B94
:103A70000FF009C00BB0BDE8F08F0000000000009F
:103A80002DE9F04381B04EF2FA394CF20017C4F23E
:103A90000109C4F201074AF203504AF20358CFF673
:103AA000FF70A9F800000120B88000BFB88808B1F5
:103AB0002FF005C082A00121398085A190ED001F63
:103AC00042F290504EF60146C2F200204EF60044FB
:103AD0004EF2200543F6000280ED001F40F6006321
:103AE000C4F2010691ED001F41F60041C4F2010449
:103AF00080ED041F2030C0F64E61C4F20105C1F60E
:103B00009C42C0F227730EC0FEF73AFE4FF650609B
:103B10001621CFF6FF702154092085F88200207805
:103B200018B93078800700F0C480207848B90120A7
:103B30002070C8200121FCF745FE00BF2078012835
:103B4000FCD10020307020700020A874287F00076E
:103B5000FCD544F60170288540F21171E9850021F9
:103B600085F82A10288140F21130A885A97200BF7B
:103B7000287F8006FCD542F232340420C3F21214AE
:103B8000387704F180702860022028710526AE7114
:103B9000FEF7F6FD962001210127FCF713FE2F7199
:103BA0002C60FEF7EDFD96200121FCF70BFEAE71B7
:103BB000FEF7E6FD2F7485F8327085F83370B9F89A
:103BC0000000A9F8008095F8551041F0400185F8F3
:103BD000551000BF95F95510B1F1FF3FFADC0421F3
:103BE00085F84D10452185F85510052185F85510AB
:103BF00095F955100029FBD4A9F8000095F8560056
:103C000040F0400085F8560095F95600B0F1FF3FAE
:103C1000FADC032085F84E00C82085F8560095F898
:103C2000560000F0BF0085F8560000BF95F9560019
:103C30000028FBD495F8350040F0400085F83500A9
:103C400095F93500B0F1FF3FFADC022085F8340029
:103C5000C52085F8350095F8350000F0BF0085F8DF
:103C6000350000BF95F935000028FBD495F83F00DA
:103C700040F0400085F83F0095F93F00B0F1FF3F6C
:103C8000FADC012085F83E00C72085F83F0095F852
:103C90003F0000F0BF0085F83F0000BF95F93F00EE
:103CA0000028FBD44FF42540A9F8000001B0BDE87E
:103CB000F0834FF47A70FCF7ACFD45E700BF00BF1E
:103CC000006CDC0200127A000080000000366E01F9
:103CD0000080000000389C1C00389C1C00389C1C94
:103CE0007047000080B54FF0600E4CF2003045F296
:103CF0008C21C4F20000C0F2002100BF51F8042B57
:103D000002B1026004300FF007C880BD000000005F
:103D100001380028FCD170472DE9F04F81B00446EE
:103D2000008800285BD04EF64C4B0025C4F2010BF6
:103D30004FF0010A42F2400800272AA6C4F22008E8
:103D4000606856F8041B00EBC50042688A423DD10A
:103D500000689BF8001000F0B8500AFA07F9B0F1BB
:103D6000807F09EA010015D158B90120FCF7DDFC7C
:103D70009BF8000040EA09008BF800000120FCF7E6
:103D8000FAFC98F90000002820D498F8000040F0D0
:103D9000800015E058B10120FCF7C7FC9BF800003B
:103DA00020EA09008BF800000120FCF7E4FC98F9F8
:103DB0000000B0F1FF3F09DC98F8000000F07F0040
:103DC00088F80000C8200121FCF7FCFC013708F14D
:103DD0000208032FB4D1208801358542AAD301B04F
:103DE000BDE8F08F0204000003040000040400009A
:103DF0004168FF290FDC8A1E1E2A08D8012303FA16
:103E000002F244F24503C4F200031A4227D180298A
:103E100018BF704723E0B1F5006F19DAB1F5807F64
:103E200018BFB1F5007F1AD0B1F5806F23D180B5EE
:103E300042F291210122C2F200210A7000F1140124
:103E400042F294205422C2F20020FCF7B9F980BD5E
:103E500012D0B1F5805F02D0B1F5005F0BD142F214
:103E600090210122C2F200210A7042F28C21C2F29A
:103E7000002180680860704742F2E8200121C2F208
:103E800000200170704700002DE9F047B4B0EFF357
:103E900003806FF35F20A0F1100842F2F830C2F205
:103EA000002050F8287078683C6801680091F96932
:103EB0000491D0F810A094F8A400002857D0E94647
:103EC0001AAD00BF94F8A400C10707D1000721D4A0
:103ED00038684FF4007200F1840104E038684FF450
:103EE000006200F1800101920A6892FAA2F2B2FA2D
:103EF00082F2082A06D3496891FAA1F1B1FA81F158
:103F000001F12002104490F8741001F0F90180F8DA
:103F100074100FE0DAF81C00396828228069C004A8
:103F20004FF4006058BF4FF400500190886D20F0AE
:103F300010008865BE69039256B168222846314652
:103F4000FCF73EF9682230464946FCF739F900E0B3
:103F50004E46796930468847B86918B168222946C3
:103F6000FCF72EF994F8A40008B12FF055C84CF2D4
:103F70000030C4F2000050F8281021F4803140F8DD
:103F8000281050F8280034B0BDE8F0872DE9F04F34
:103F9000B5B0EFF303806FF35F20A0F1100842F299
:103FA000F830C2F200204FF4806250F82840606878
:103FB0000168282004902068CDE90112016EC9052E
:103FC0002ED40DF1040942F2F03A09F11405C2F2BF
:103FD000002A0DF16C0B00BF28212A4600F04EFA92
:103FE00001985AF82060D6E90670059057B168220A
:103FF00058463946FCF7E4F8682238464946FCF74B
:10400000DFF800E04F46716938468847B06918B15B
:1040100068225946FCF7D4F82068016EC905DBD543
:10402000816D21F0080181652068806D00070BD447
:104030004CF20030C4F2000050F8281021F4803116
:1040400040F8281050F8280035B0BDE8F08F000087
:104050002DE9F04FB5B0EFF303806FF35F20A0F1CF
:1040600010010091072956D101A842F2F03B00F15E
:104070000C0500240126C2F2002B4FF070490DF10F
:104080006C0A00205BF82080B8F1000F3CD05C2166
:104090002846FCF7AEF84FF480500290D8F80000A4
:1040A000016A09EA013202EB0142890703920462C4
:1040B0000DD5D8F80000816E91FAA1F1B1FA81F125
:1040C000049100EB8100416C21F004014164D8E9C6
:1040D0000670019405905FB1682250463946FCF79E
:1040E0006FF86822384601A9FCF76AF801E000BFC2
:1040F00001AFD8F8141038468847D8F8180018B11E
:1041000068225146FCF75CF8F0074FF001004FF0D1
:104110000006B7D12FE042F2F83001AEC2F2002023
:1041200050F8215006F114005421FCF762F84FF4C6
:10413000807002902868C16889B203910021C16033
:10414000D5E906400191CDE9041054B11BA86822BD
:104150002146FCF735F801A968222046FCF730F823
:1041600000E03446696920468847A86918B11BA950
:104170006822FCF725F84CF20030009AC4F20000E7
:1041800050F8221021F4803140F8221050F822001B
:1041900035B0BDE8F08F00002DE9F04FB5B001A8B3
:1041A00000226C2300F114054FF00008C4F238021D
:1041B000C4F238034FF0010A42F2F030C2F200209C
:1041C00050F8280000285FD04FEA483042EA4837CC
:1041D000185890FAA0F0B0FA80F1012949D84FF4AC
:1041E00080600290012041F0200400FA01F904945B
:1041F000009100BF386E10EA090F2DD138462146D4
:104200002A46CDF8048000F039F9019842F2F031E5
:10421000C2F2002151F820B0DBE9066005905EB1E2
:1042200068221BA83146FBF7CBFF6822304601A964
:10423000FBF7C6FF01E000BF01AEDBF8141030460B
:104240008847DBF8180008B92FF02DC068221BA999
:10425000FBF7B6FFCEE700BF009800226C23C4F244
:10426000380207EB8000C4F23803416C21F00801EA
:104270004164F86E40B94CF22031C4F20001086884
:1042800020F48030086008685FEACA704FF00108C7
:104290004FF0000A90D135B0BDE8F08F4168022997
:1042A0000BD0042918BF704700F1080142F2C0305A
:1042B000C2F200200122FCF77BBE42F28D500121A8
:1042C000C2F200200170704780B582B0019042F2C6
:1042D000C030C2F2002001A90122FCF769FE42F2BF
:1042E0008D50C2F2002000BF017809B92FF005C03F
:1042F00000210170019802B080BD000082B0FCF77F
:1043000043F900F093F8FCF703F9FEF79BFF42F244
:10431000942942F24035C2F2002942F2912A45F234
:10432000DF7627A0C2F200254FF00008C2F2002A73
:1043300009F11404C0F200263BA7019400F020FD0F
:104340002878012803D185F80080FEF770FF9AF8DD
:10435000000008B92FF00DC08AF80080214699F8B6
:104360000C20D9F80000FEF77BFD1DA000F008FD31
:10437000D9F8001021A000F0C1FA99F80C1023A080
:1043800000F0BCFA26A000F0FBFC99F80C00002815
:104390003046D3D04FF0000B14F8011B38460BF118
:1043A000010B00F0ABFA5FEA4B7002D1304600F02F
:1043B000E7FC99F80C008345EED33046019CBDE73D
:1043C000524138443120554453E8AF8AE696ADE671
:1043D000B58BE8AF95E5BC80E5A78B0D000000002C
:1043E00043616E666436204C617374205265636568
:1043F000697665205064753A200D000049443A20E2
:10440000307825303878200D0A000000446174614E
:104410004C656E6774683A202564200D0A00000020
:10442000446174613A200D002564090040F22810AF
:1044300044F6D351C2F20020C1F262010068A0FB31
:1044400001014FF0FF3000EB91110020B0EB116F34
:1044500018BF70474EF21002F023CEF200025160F6
:104460004EF62351CEF200010B70906007201060D1
:10447000704780B5FFF742FF002080BD10B51F29AF
:104480000FD840F2FF3CCB0101F007044FF04C0E77
:1044900023EA0C0C00EB0C0314FB0E3303F5126C37
:1044A00009E04C23282901FB030302D3A3F5C56CC3
:1044B00001E0A3F58C6CDCF80040C4F380739360DA
:1044C000DCF8083003F00703136124F06043136045
:1044D000E30F5360DCF8043012A41B0F14F803E060
:1044E00082F80CE008D00CF10C03143213F8014BE5
:1044F00002F8014B0FF007C01F2907D8012202FA6A
:1045000001F1426B22EA0101416310BD00EB810021
:10451000282903D3FF2140F8441C10BDFF2140F897
:10452000341C10BD0001020304050607080C10141A
:104530001820304010B5802901F00F03026830D2F6
:104540005FEAC17CD2F804E002D11EF0040104D17C
:10455000052B08BF1EF0010109D15168012464F345
:1045600002015160916801F007010129FAD15168F7
:1045700021F0070119435160916801F00701994248
:10458000FAD1BCF1000F3ED11EF003013BD04168CF
:104590000969C9698969536D01F0010119435165C0
:1045A00031E0D2F818E05FEAC17C0EF0010E12D0C3
:1045B000BEF1000F0FD10268D16B21F00101D16370
:1045C00001680A6C22F001020A6401684A6D22F057
:1045D00001024A650268916921F00701194391615E
:1045E000D16901F007019942FAD1BCF1000F0AD15B
:1045F000BEF1000F07D041680969C9698B68D363B0
:104600000268C96811640168496801F00701C16066
:1046100010BD000070B50446FFF77EFB42F2B83CC7
:10462000EFF31081C2F2002C012080F31088DCF837
:10463000000038B940F614500022C4F24000027065
:1046400040220270DCF800000130CCF8000081F359
:104650001088208818B340F6000E0021C4F2400EE6
:10466000606800EBC10250F831305268D8034FEA5D
:104670001220D2B20BD50EEB801555F8226026F42D
:10468000803645F8226023F4803645F822600EEB30
:104690008010013140F8223020888142E0D301208F
:1046A000EFF3108180F31088DCF8000020B1DCF813
:1046B00000000138CCF80000DCF8000038B940F602
:1046C00014500022C4F2400002708022027081F374
:1046D000108870BDB0B584B00446806A40B1D0E99E
:1046E00000CED0E90235CDE90235CDE900CE00E0BB
:1046F0006846E369D4F824C0E56AC0E902151B786E
:10470000C0E90032E047A06A10B19DE82E002EC03B
:1047100004B0B0BD70B5EFF303806FF35F20A0F17C
:10472000100642F2F830C2F2002050F826008178DC
:10473000036A01F00301022903D119686FF35F21B5
:1047400000E019789A6C20244FF0080C04EAD24457
:104750004FF0100E0CEA12651EEA126225442A443C
:1047600006D09D6C402404EA55252A4482F040027C
:104770009D6E45F0C8559D66436A0BB1FFF7AAFFD1
:104780004CF20030C4F2000050F8261021F48031C1
:1047900040F8261050F8260070BD10B582B040F2E7
:1047A000FC714CF2C022EFF3038001EA800042F278
:1047B000F831C4F20002C2F200210144835823F40C
:1047C00080338350805851F8404CA07800F00302A9
:1047D000206A022A03D101686FF35F2100E00178AB
:1047E000A069019190B1606901A9FBF7E9FCA0788B
:1047F000D4E9051200F003000144101AC4E90510C1
:104800000DD1606A58B10021012202E0606A30B126
:104810000422204602B0BDE81040FFF75BBF02B0A3
:1048200010BD10B5EFF303806FF35F20A0F110040B
:1048300042F2F830C2F200204FF6EF73CFF6CF739A
:1048400050F82400016A8A681A408A60416A19B1E6
:1048500000210222FFF73EFF4CF20030C4F20000BC
:1048600050F8241021F4803140F8241050F824002E
:1048700010BD40F2FC714CF2C022EFF3038001EA5C
:10488000800042F2F831C4F20002C2F20021014479
:10489000835823F480338350805851F8400CC16909
:1048A000496B0029016918D1C1B1817801F0030178
:1048B0000229C16805D10988026A21F4DC415160EE
:1048C00002E0026A097811718178C36801F003027D
:1048D0000169891A01611A44C26071B9016A02232F
:1048E0008A6863F315528A60416A00294FF000011B
:1048F000C16002D08022FFF7EDBE70470FB4054BB8
:1049000010B503A9044A029800F008F810BC5DF83D
:1049100014FB0000C9420002000000222DE9FF4FF5
:104920008DB00F460546002606E025280BD0DDE9B0
:104930000F1290476D1C761C28780028F5D111B015
:104940003046BDE8F08F0024A246A1460122EC4982
:1049500000E0044315F8013F203B02FA03F008424F
:10496000F7D128782A2810D06FF02F022878A0F1EC
:104970003001092914D80AEB8A0102EB410144F005
:10498000020400EB010A6D1CF0E701CF5FEA000AA8
:1049900003D544F40054CAF1000A44F002046D1C2B
:1049A00028782E2817D115F8010F44F004042A287E
:1049B0000ED06FF02F022878A0F1300109290AD813
:1049C00009EB890102EB410100EB01096D1CF2E7E3
:1049D00057F8049B6D1C28786C280FD006DC4C28F7
:1049E00017D068280DD06A2814D104E0742810D09C
:1049F0007A280FD10DE044F400140AE044F4801446
:104A000001E044F440146978814202D104F5801435
:104A10006D1C6D1C2A786E2A1FD00CDC632A31D0E5
:104A200004DC002A8BD0582A11D1A3E0642A68D074
:104A3000692A0CD165E0732A2ED004DC6F2A73D06A
:104A4000702A04D19BE0752A6FD0782A6ED0104668
:104A5000DDE90F129047761C50E1C4F302500228A2
:104A600006D0032809D0042801CF09D0066045E10B
:104A700001CFF117C0E9006140E101CF06803DE1BF
:104A800006703BE117F8040B8DF8000000208DF84C
:104A90000100EB46012003E057F804BB4FF0FF3064
:104AA00061074FF0000102D40DE008F101018846D2
:104AB00049450FDA8045F8DB1BF808100029F4D1CE
:104AC00008E008F1010188468142FADB1BF8081072
:104AD0000029F6D1DDE90F23AAEB08008146214623
:104AE00000F036F9304400EB080604E0DDE90F126F
:104AF0001BF8010B9047B8F10108F7D22146484650
:104B0000F7E00A21C4F302534FF0000B0891022B87
:104B100004D001CFC117032B09D00AE0FF1D27F0F5
:104B20000707F7E8020108E032E01FE020E000B2EA
:104B3000C117042B01D140B2C117031E71F100034C
:104B400007DA4FF0000CD0EB0C006CEB01012D23C9
:104B500002E0230504D52B238DF82430012303E044
:104B6000E30701D02023F7E7984658E00A2110E038
:104B700010210EE010204FF0000B08900CE01021E7
:104B80004FF0000B44F004044FF00809089103E0D3
:104B900008214FF0000B0891C4F30253022B04D0FC
:104BA00001CF0021032B06D006E0FF1D27F00707E9
:104BB000F7E8020103E080B2042B00D1C0B24FF04D
:104BC000000823072BD5702A07D0DDF820C08CF011
:104BD000100C5CEA0B0C05D00EE040238DF824305D
:104BE000012308E050EA010306D030238DF8243079
:104BF0008DF8252002239846DDF820C08CF0080CA3
:104C00005CEA0B0C0BD150EA010301D1630706D516
:104C100030238DF824304FF00108A9F10109582AFA
:104C200004D038A20B9208AA0A920BE03AA2F9E744
:104C30005B46089AFBF7E8FA0B9B9B5C0A9A521EAC
:104C40000A92137050EA0102F2D10A98ADEB00000B
:104C500000F1200B600702D524F4803401E04FF00E
:104C60000109D94502DDA9EB0B0000E0002000EBB3
:104C70000B0141440890AAEB010AE00306D4DDE9E8
:104C80000F232146504600F063F806444FF0000918
:104C900008E009A911F80900DDE90F12904709F1B0
:104CA0000109761CC145F4DBE0030CD5DDE90F23D7
:104CB0002146504600F04CF8064404E0DDE90F12AE
:104CC00030209047761C0899481E08900029F5DC92
:104CD00008E00A980A990078491C0A91DDE90F1248
:104CE0009047761CBBF10001ABF1010BF1DC2146D2
:104CF0005046DDE90F2300F019F806446D1C1BE651
:104D000009280100303132333435363738396162A1
:104D10006364656600000000303132333435363765
:104D20003839414243444546000000002DE9F04136
:104D3000044600251E461746880404D405E039467B
:104D40002020B0476D1C641EF9D52846BDE8F081CF
:104D50002DE9F041044600251E469046C80301D5C2
:104D6000302700E02027880404D505E04146384676
:104D7000B0476D1C641EF9D52846BDE8F0810000DF
:104D800010B5044601E0FFF79FFA14F8010B04493F
:104D90000028F8D1BDE810400A20FFF795BA0000BE
:104DA000000000220700000017911705010107010C
:104DB0002800010001006400640000006800002277
:104DC000850500026C00002228000000019C0105FE
:104DD00001010701280001000100640064000000D7
:104DE00068000022850500026C00002228000000F7
:104DF000019C110501010701280001000100640068
:104E00006400000068000022850500026C0000229A
:104E100028000000019C1205010107012800010083
:104E200001006400640000006800002285050002A3
:104E30006C00002228000000019C130501010701FD
:104E400028000100010064006400000068000022E6
:104E5000850500026C00002228000000029C13055A
:104E60000101070128000100010064006400000046
:104E700068000022850500026C0000222800000066
:104E80000D9C0005010107012800010001006400DC
:104E90006400000068000022850500026C0000220A
:104EA0002800000001020408102040801B3600008A
:104EB000100C07000200000002000000ED120002CA
:104EC000110C07000200000002000000DD150002C6
:104ED000270C070002000000120000000524000259
:104EE0003E0C07000200000002000000BB2500028B
:104EF000220C0700030000000B00000079190002DB
:104F00002E04020004000000FF00000075260002CD
:104F100031040600040000000D000000D516000258
:104F2000340402010B0000000B00000027220002E5
:104F30003604020102000000020F0000A525000255
:104F4000370402010100000001000000C523000237
:104F5000850C0400020000000200000001120002A3
:104F6000280C0400030000000300000005100002EC
:104F7000140C050004000000040000006111000290
:104F8000190C050002000000FF000000391F00029C
:104F90000000000035110002800000003511000201
:104FA0000100000009110002810000000911000247
:104FB00002000000B510000282000000B5100002DF
:104FC00003000000E110000283000000E110000275
:104FD000FFFFFF00FD11000201000000CD120002E2
:104FE00002000000AF12000281000000CD1200029A
:104FF00082000000AF12000201000000A1130002B5
:1050000081000000A1130002020000004114000210
:1050100003000000F113000283000000F1130002FE
:10502000010000008B16000202000000A71600021B
:1050300003000000B7160002010000008D170002F7
:10504000020000008917000203000000851700021B
:105050000000000000000000000000000000000050
:1050600032F000004D1B000283F10000B11D000270
:1050700031F00000251B000280F100008B1D0002B2
:1050800084F10000CF1D000287F100000B1E00021A
:1050900089F10000331E000289F00000791B000234
:1050A00013F00000FD1A000290F00000D11B000276
:1050B0008AF10000591E00028BF10000791E0002E7
:1050C0008CF10000A91E000290F10000F11E000208
:1050D00097F10000171F000211F00000D11A000222
:1050E000F0F00000171C0002F2F00000611C00024A
:1050F000F1F00000311C0002F3F00000811C0002FE
:1051000086F10000F51D000291F00000F71B00027F
:1051100050F10000DB1C000251F10000F11C000204
:1051200052F10000071D00025BF100001D1D00028E
:10513000FEF00000B11C000260F10000331D00020F
:1051400061F10000491D000208D00000A11A000210
:1051500062F100005F1D000263F10000751D000296
:1051600000400000A914000200410000C114000228
:1051700000560000F1140002015600000B15000259
:1051800002560000211500020456000041150002DD
:105190000B5600005B1500020C560000751500024E
:1051A0000D5600008F1500020E560000A9150002D2
:1051B0000F560000C3150002010000007D2100020F
:1051C00002000000E91F000204000000E1200002CC
:1051D00006000000552000020A000000C92100025C
:1051E00001000000B5240002020000002925000291
:1051F00003000000B524000204000000292500027D
:1052000005000000B5240002060000002925000268
:10521000000000006126000298F100000C00000070
:1052200035270002010002000800100006000000FF
:1052300038520002000000000000011002010000CE
:10524000000001100301000000000110080200002E
:105250000000011009020000000001050E0A000014
:10526000000001050F0A00000100000004000022F8
:10527000F13D000200000000280000220A000000AA
:1052800004000000060000000500000063010000AB
:105290006401000065010000660100009501000046
:1052A00094010000960100008601000085010000C5
:1052B000900100008F01000091010000000000003B
:1052C00000000000000000000000000000000000DE
:1052D00000000000000000000000000000000000CE
:1052E00000000000000000000000000000000000BE
:1052F00000000000000000000000000000000000AE
:10530000000000000000000000000000000000009D
:10531000000000000000000000000000000000008D
:10532000000000000000000000000000000000007D
:10533000000000000000000000000000000000006D
:10534000000000000000000000000000000000005D
:10535000000000000000000000000000000000004D
:10536000000000000000000000000000000000003D
:10537000000000000000000000000000000000002D
:10538000000000000000000000000000000000001D
:10539000000000000000000000000000000000000D
:1053A00000000000000000000000000000000000FD
:1053B00000000000000000000000000000000000ED
:1053C00000000000000000000000000000000000DD
:1053D00000000000000000000000000000000000CD
:1053E00000000000000000000000000000000000BD
:1053F00000000000000000000000000000000000AD
:105400000000000000000000000000000900000093
:105410000200000000000000000000000C0000007E
:10542000000000000C000000010000000C00000063
:10543000020000000C00000003000000000000005B
:10544000000000009D4200020000000050540002D5
:1054500000000000010000000000000064000022C5
:105460000F000000FFFF000000000000000000002F
:1054700000000000010100000000010200000E22F7
:1054800000000027000000200000010200000000D2
:1054900000000E2200000027000000200000000293
:1054A0000000000000000022FF0F0000000000804C
:1054B000008000000100000000000000000000006B
:1054C00000000000000000000000000000000000DC
:1054D00000000000000000000000000000000000CC
:1054E00000000000000000000000000000000000BC
:1054F00000000000000000000000000000000000AC
:10550000000000000000000000000000000000009B
:10551000000000000000000000000000000000008B
:10552000000000000000000000000000000000007B
:10553000000000000000000000000000000000006B
:10554000000000000000000000000000000000005B
:10555000000000000000000000000000000000004B
:10556000000000000000000000000000000000003B
:10557000000000000000000000000000000000002B
:10558000000000000000000000000000000000001B
:10559000000000000000000000000000000000000B
:1055A000000000000000000052096AD53036A5381E
:1055B000BF40A39E81F3D7FB7CE339829B2FFF87FB
:1055C000348E4344C4DEE9CB547B9432A6C2233DDF
:1055D000EE4C950B42FAC34E082EA16628D924B290
:1055E000765BA2496D8BD12572F8F66486689816B1
:1055F000D4A45CCC5D65B6926C704850FDEDB9DA10
:105600005E154657A78D9D8490D8AB008CBCD30AFD
:10561000F7E45805B8B34506D02C1E8FCA3F0F02D9
:10562000C1AFBD0301138A6B3A9111414F67DCEAA8
:1056300097F2CFCEF0B4E67396AC7422E7AD358521
:10564000E2F937E81C75DF6E47F11A711D29C5892B
:105650006FB7620EAA18BE1BFC563E4BC6D279200D
:105660009ADBC0FE78CD5AF41FDDA8338807C73116
:10567000B11210592780EC5F60517FA919B54A0D0E
:105680002DE57A9F93C99CEFA0E03B4DAE2AF5B083
:10569000C8EBBB3C83539961172B047EBA77D6269F
:1056A000E169146355210C7D637C777BF26B6FC5D8
:1056B0003001672BFED7AB76CA82C97DFA5947F015
:1056C000ADD4A2AF9CA472C0B7FD9326363FF7CCF1
:1056D00034A5E5F171D8311504C723C31896059A8E
:1056E000071280E2EB27B27509832C1A1B6E5AA0B1
:1056F000523BD6B329E32F8453D100ED20FCB15B9C
:105700006ACBBE394A4C58CFD0EFAAFB434D338504
:1057100045F9027F503C9FA851A3408F929D38F5D8
:10572000BCB6DA2110FFF3D2CD0C13EC5F9744170F
:10573000C4A77E3D645D197360814FDC222A908886
:1057400046EEB814DE5E0BDBE0323A0A4906245C12
:10575000C2D3AC629195E479E7C8376D8DD54EA977
:105760006C56F4EA657AAE08BA78252E1CA6B4C643
:10577000E8DD741F4BBD8B8A703EB5664803F60E9C
:10578000613557B986C11D9EE1F8981169D98E948B
:105790009B1E87E9CE5528DF8CA1890DBFE64268A4
:1057A00041992D0FB054BB1663616E66642F62730E
:1057B000705F63616E6664312E63004653505F53C1
:1057C000554343455353203D3D20657272005B466F
:1057D00061696C5D0D005B537563636573735D0D8B
:1057E000005265717565737420646F776E6C6F61BC
:1057F0006420464C53204472697665723A204164B5
:1058000064725B253038785D2C2053697A655B259E
:105810003038785D2C20000000000305352E332E33
:1058200030004275696C7420776974682052656E27
:105830006573617320416476616E63656420466CB4
:10584000657869626C6520536F6674776172652054
:105850005061636B6167652076657273696F6E2056
:10586000352E332E30000000000000000100000043
:105870003B000000140000000400000001000000D4
:105880000E00000005000000010000000000000004
:10589000A854000200000000010000000000000009
:1058A0000000000014000022010000004800002257
:1058B000030000000100000073720000027300008A
:1058C000010700000A0A00000060600110400000AB
:1058D00000000000000000000000000000000000C8
:020000040300F7
:10A10000FFFFFFFFFFFFFFFFFFFFFFFFFFFFFFFF5F
:10A11000FFFFFFFFFFFFFFFFFFFFFFFFFFFFFFFF4F
:10A12000FFFFFFFFFFFFFFFFFFFFFFFFFFFFFFFF3F
:10A13000FFFFFFFFFFFFFFFFFFFFFFFFFFFFFFFF2F
:10A14000FFFFFFFFFFFFFFFFFFFFFFFFFFFFFFFF1F
:10A15000FFFFFFFFFFFFFFFFFFFFFFFFFFFFFFFF0F
:10A16000FFFFFFFFFFFFFFFFFFFFFFFFFFFFFFFFFF
:10A17000FFFFFFFFFFFFFFFFFFFFFFFFFFFFFFFFEF
:020000040300F7
:10A20000FFFFFFFDFFFFFFFFFFFFFFFFFFFFFFFF60
:10A21000FFFFFFFFFFFFFFFFFFFFFFFFFFFFFFFF4E
:10A22000FFFFFFFFFFFFFFFFFFFFFFFFFFFFFFFF3E
:10A23000FFFFFFFFFFFFFFFFFFFFFFFFFFFFFFFF2E
:10A24000FFFFFFFFFFFFFFFFFFFFFFFFFFFFFFFF1E
:10A25000FFFFFFFFFFFFFFFFFFFFFFFFFFFFFFFF0E
:10A26000FFFFFFFFFFFFFFFFFFFFFFFFFFFFFFFFFE
:10A27000FFFFFFFFFFFFFFFFFFFFFFFFFFFFFFFFEE
:10A2800000000000FFFFFFFFFFFFFFFFFFFFFFFFDA
:10A29000FFFFFFFFFFFFFFFFFFFFFFFFFFFFFFFFCE
:10A2A000FFFFFFFFFFFFFFFFFFFFFFFFFFFFFFFFBE
:10A2B000FFFFFFFFFFFFFFFFFFFFFFFFFFFFFFFFAE
:10A2C000FFFFFFFFFFFFFFFFFFFFFFFFFFFFFFFF9E
:020000042703D0
:0400000502000FF9ED
:00000001FF
